:020000040800F2
:1000000058040020A9100008851000088710000877
:10001000891000088B1000088D10000800000000F7
:100020000000000000000000000000008F10000829
:1000300091100008000000009310000895100008BF
:10004000C1100008C5100008C9100008CD10000834
:10005000D1100008D5100008D9100008DD100008E4
:10006000E1100008E5100008E9100008ED10000894
:10007000F1100008F5100008F9100008FD10000844
:100080000111000805110008091100080D110008F0
:100090001111000815110008191100081D110008A0
:1000A0002111000825110008291100082D11000850
:1000B0003111000835110008391100083D11000800
:1000C0004111000845110008491100084D110008B0
:1000D0005111000855110008591100085D11000860
:1000E0006111000865110008691100086D11000810
:1000F0007111000875110008791100087D110008C0
:100100008111000885110008891100088D1100086F
:100110009111000895110008991100089D1100081F
:10012000A1110008A5110008A9110008AD110008CF
:10013000B11100080000000000000000B511000827
:10014000B9110008BD110008C1110008C51100084F
:10015000C9110008CD110008D1110008D5110008FF
:10016000D9110008DD110008E1110008E5110008AF
:10017000E9110008ED110008F1110008000000006D
:1001800000000000F5110008000000000000000061
:10019000F91100080000000000000000FD11000837
:1001A0000000000000000000000000000112000834
:1001B00005120008091200080D12000811120008AB
:1001C000151200080020086000F0F4B92DE9504134
:1001D000DFF8CC43DFF8C0636068DFF8C08300F06D
:1001E0000C00042804D0082804D00C2815D027E0DF
:1001F000404626E000F027F847BFC0F38816A8FB6A
:100200000601C0F38818A6FB080100F0D9F921689F
:10021000C1F30141491C49000FE000F014F847BF49
:10022000C0F38816A8FB0601C0F38818A6FB0801D6
:1002300000F0C6F92168C1F30271B0FBF1F000E0F3
:100240003046BDE8508100232268206841022068C2
:1002500002F03F0270472DE9F84304001BD02078DC
:10026000DFF84063C10718D500F08DF904280DD0E0
:1002700000F089F9082802D17068410206D400F024
:1002800082F90C2845D17068410242D5306881035B
:1002900003D56068002800F070812078DFF80873CB
:1002A00081071FD5B06810F00C0F0DD000F06BF96E
:1002B000082802D17068410206D500F064F90C28C4
:1002C0005CD17068410259D43068810703D5E06879
:1002D000012840F052813168206921F0F80141EA9B
:1002E000C00131602178080779D56069DFF8BC1258
:1002F000002868D001220A6000F05CF90546706FA2
:1003000081076CD400F056F9401B0228F7D903206E
:1003100036E16068B0F5803F04D1306840F4803049
:10032000306011E0B0F5A02F306806D140F4802095
:100330003060316841F4803105E020F48030306075
:10034000316821F480213160606858B100F032F9E1
:10035000054630688103A0D400F02CF9401B6528C5
:10036000F7D3D4E700F026F905463068810394D529
:1003700000F020F9401B6528F7D3C8E7E068A8B172
:100380000121396000F016F905463068810705D46F
:1003900000F010F9401B0228F7D9B8E7306821694E
:1003A00020F0F80040EAC10030609BE7386000F0C0
:1003B00001F905463168880794D500F0FBF8401B29
:1003C0000228F7D9A3E7FFF7FEFE0546706F810705
:1003D00005D500F0EFF8401B0228F7D997E7207801
:1003E000410760D5306C0025C1000BD4002000907F
:1003F0000125316C41F080513164306C00F0805047
:1004000000900098DFF8A881D8F80000C10513D447
:10041000D8F8000040F48070C8F8000000F0CAF876
:100420008146D8F80000C10506D400F0C3F8A0EB5F
:1004300009000228F5D96AE7A068012805D0052837
:10044000306F06D140F004003067306F40F001009B
:1004500005E0400840003067306F20F0040030674E
:1004600041F28938A06860B100F0A4F88146306F8D
:10047000810713D400F09EF8A0EB09004045F6D3A5
:1004800045E700F097F88146306F810706D500F008
:1004900091F8A0EB09004045F6D338E71DB1306C68
:1004A00020F080503064A069002868D0B16801F065
:1004B0000C01082938D002282AD100F068F8054636
:1004C0003068810105D500F075F8401B0228F7D986
:1004D0001DE7E069216A626A0843A16A490840EAA7
:1004E0008210491E40EA0140E16A226B40EA016045
:1004F00040EA02707060012000F04AF8044630685B
:1005000081013CD400F056F8001B0228F7D9FEE622
:1005100000F03DF804463068810130D500F04AF81B
:10052000001B0228F7D9F2E6012826D07068E2699C
:1005300000F48001914202BF00F03F01226A914223
:1005400001BF47F6C0710140626AB1EB821F14D14E
:10055000A26A00F4403101F580315208B1EB024F3C
:1005600002BF00F07061E26AB1EB026F02BF00F0FF
:10057000E040216BB0EB017F01D0012000E00020C2
:10058000BDE8F2830000B06800F00C007047002066
:10059000386600F00FB800000024F40000127A0062
:1005A000043802400038024000004742800E4742B3
:1005B0000070004001484068704700BF0000002004
:1005C000D3BBD9B1B2F5803F5BD2022A1ED98C468B
:1005D000B1FBF2F102FB11C31B0443EA1043B3FB6E
:1005E000F2FC02FB1C3380B240EA0343B3FBF2F09F
:1005F00002FB103240EA0C4000237047022A05D962
:100600008446B0FBF2F002FB10C270474AB105D13C
:1006100000F0010249085FEA300070470022002321
:10062000704700F06DB80B000200002100207047F9
:10063000F7D3002200237047904271EB030CF2D3F2
:1006400070B5B1FA81F4B3FA83F52C1BA340C4F161
:10065000200532FA05F63343A2405FF00046E6403B
:1006600002E05B085FEA3202841A71EB030524BFE3
:10067000204629467641F4D302000B0030000021C9
:1006800070BD70B5B1FA81F4B2FA82F5C4F12004FC
:100690006419B4F12006DAD3B2405FF00044F440AC
:1006A000002502E052085FEA3303C61A71EB020E1E
:1006B00024BF3046714664416D41F3D302000B0004
:1006C0002000290070BD30B5016884684218416877
:1006D00002EB5103C90703D54C4401E0491C08D182
:1006E0009A4218BF12F9011B01D10C3030BD12F82B
:1006F000015B002904F8015BF0D4491EF7D5EFE750
:10070000704700002DE9F84F0D4600267249734AE4
:100710000F23044601202F68B04000EA07088045F7
:1007200040F0D0804FEA460C032707FA0CF76FEA37
:10073000070E6F6807F00309B9F1010F1CBF07F03E
:100740000307022F12D1A768D5F80C900EEA07070D
:1007500009FA0CF949EA0707A760676827EA000069
:100760006F68C7F30017B74038436060B0002F7957
:1007700007F00307032F21D0E768D5F808900EEAA9
:10078000070709FA0CF949EA0707E7602F7907F02C
:100790000307022F12D1F70804EB870700F01C09AA
:1007A000D7F820A003FA09FB2AEA0B0AD5F810B003
:1007B0000BFA09F949EA0A09C7F8209027680EEAF6
:1007C000070E2F7907F0030707FA0CF747EA0E0C1C
:1007D000C4F800C06F6817F4403F73D04FF0000EAC
:1007E000CDF800E04FEA960C176847F48047176091
:1007F00000F00C00D2F800E0394F0EF4804ECDF836
:1008000000E0DDF800E057F82C7003FA00FE27EA5C
:100810000E0E344FBC4208BF00271DD0324FBC42E1
:1008200008BF012718D0314FBC4208BF022713D0A0
:100830002F4FBC4208BF03270ED02E4FBC4208BF2B
:10084000042709D02C4FBC4208BF052704D02B4FEA
:10085000BC420CBF0627072707FA00F040EA0E004B
:10086000DFF87CE04EF82C006FEA0800D1F808C0F1
:100870006F6800EA0C0CFF0248BF48EA0C0CC1F894
:1008800008C0D1F80CC06F6800EA0C0CBF0248BF6A
:1008900048EA0C0CC1F80CC0D1F804C06F6800EA3B
:1008A0000C0CBF0348BF48EA0C0CC1F804C0D1F8D7
:1008B00000C000EA0C0C6868C00348BF48EA0C0C92
:1008C000C1F800C0761C0F2E7FF624AFBDE8F18F73
:1008D00002B9090481617047003C0140443802407C
:1008E00008380140000002400004024000080240B5
:1008F000000C0240001002400014024000180240A8
:1009000010B586B000F0D4F800F06CF800F0C8F82C
:10091000002000905A4C5B48016841F004010160DE
:10092000026802F00402009200220099009203681B
:1009300043F080030360016801F080010091009999
:100940000092036843F001030360016801F00101B4
:100950000091009900922021036843F00203036094
:10096000006800F00200009000982046FFF7B0FFFA
:100970004FF400504FF404110190029100220392B1
:1009800001A94148FFF7BEFE20210191012200216B
:1009900003910491029201A92046FFF7B3FE3B4860
:1009A0003B4901604FF4E13200230C214260836037
:1009B000C360036141618361C36100F093F808B1D2
:1009C00000F073F833484FF0AA3101604FF0BB32AA
:1009D00042604FF0CC3383604FF0DD31C16000F0F6
:1009E0005AF9FEE700B593B03422002106A800F0C2
:1009F0007FF900F055F80020009001232648016897
:100A000041F0805101600021006800F080500090AA
:100A10000098224800910121026861F38F32026040
:100A20000222006800F44040009006A80099069257
:100A300010210A910C9200210D9110224FF4A871FF
:100A40000E920F910422022109931092119112919A
:100A5000FFF701FC08B100F028F8022102910F20F5
:100A60004FF48051019000220491039205920221DB
:100A700001A800F047F908B100F017F813B000BD65
:100A80000000024030380240000802401000002000
:100A90000044004000BF0120403802400070004088
:100AA0001422002101A800F023B972B6FEE700006D
:100AB00080B50B48016841F400710160026842F49E
:100AC00080620260016841F480710160032000F0DF
:100AD000B8F8002000F0BCF900F0DAF9002002BDFF
:100AE000003C024038B5040001D1012032BD00F0C5
:100AF00019F808B900F01AF800F01DF800F025F810
:100B0000FFE7416100F001F832BD2068C16841F49F
:100B10000051C16000206860202169702020A87009
:100B20000020704704F13C05687870470021297067
:100B3000204600F0C9B9242068702068C16821F4FB
:100B40000051C160204600F00AB82068016921F414
:100B5000904101612068416921F02A01704770B518
:100B6000044622681169E06821F440510143116193
:100B7000D3682748A168034020690B436169034398
:100B8000E0690B430343D3605169A06921F44071CC
:100B9000014351611F498A421CBF1F48824202D152
:100BA00000F03EF901E000F033F962682568E4697D
:100BB0001921B4F5004FA1FB00016FF0630612D1BB
:100BC000D30F5200FFF7FCFC00F028F8F600323695
:100BD0006420B6FBF0F0420002F4F87202EB01125E
:100BE00000F0070010E0930F9200FFF7E9FC00F01F
:100BF00015F8360132366420B6FBF0F000F0F00252
:100C000002EB011200F00F008018A86070BD000018
:100C1000F369FFFF00100140001401406421B0FBA4
:100C2000F1F106FB010670470901020002D42948D0
:100C300081547047284B02F00F021A4402F8041C3A
:100C40007047264B19684FF6FF020002114000F46E
:100C5000E0600843224908431860704770B51F4B95
:100C60001C68C4F302230124C3F10705052D2EBF20
:100C70000F2504FA05F56D1E1E1D072E34BF002337
:100C8000DB1E2940994004FA03F3BDE870405B1E67
:100C90001A401143C8E7BFF34F8F104911480A6843
:100CA00002F4E06202430A60BFF34F8F00BFFDE72A
:100CB000401EB0F1807F01D3012070470A490B4AE2
:100CC00048600023F02010708B600720086000202F
:100CD0007047000000E400E018ED00E00CED00E0DB
:100CE0000000FA050400FA0510E000E023ED00E042
:100CF00010B5044610460A460146204600F01EF98B
:100D0000204610BD2DE9F04104000F4654D0494E55
:100D1000306800F00F00B84202D200F073F84BD1F7
:100D20002068454D810712D5400703D5A96841F4D5
:100D3000E051A9602078010703D5A86840F460401D
:100D4000A860A968A06821F0F0010143A96021789A
:100D5000C80729D56068012802D129688A0305E0FF
:100D6000022818BF032803D129688A0103D423E08D
:100D700029688A0720D5A968890840EA8100A86007
:100D8000FFF718FC8046A868616800F00C00B0EB23
:100D9000810F09D0FFF70EFCA0EB080041F289316A
:100DA0008842F0D303202BE0306800F00F00874228
:100DB00004D200F027F801D0012021E0207841077B
:100DC00005D5AA68E06822F4E0520243AA602178BF
:100DD000080706D5A968206921F4604141EAC001ED
:100DE000A960FFF7F3F9AA681449154BC2F303127F
:100DF000895CC84018601348006800F029F800209A
:100E0000BDE8F0813770316801F00F01B9427047D9
:100E10000B480D4A006813680C49C3F3822206E0B0
:100E20000748094A006813680849C3F34232895CDD
:100E3000C8407047003C02400038024010100008D3
:100E40000C0000200800002008380240B8100008FC
:100E500038B50D4D0D4B2A7804464FF47A71186859
:100E6000B1FBF2F2B0FBF2F0FFF722FF50B9102C09
:100E700008D2002221464FF0FF30FFF7EFFEAC60B2
:100E8000002032BD012032BD000000200C000020F7
:100E900082B00020009000222448416841F4804143
:100EA0004160416801F4804100910099009203681B
:100EB00043F080530360006800F080500090009879
:100EC000072002B0FFF7BDBE10B586B0044614225D
:100ED000002101A8FFF70CFF21681548814223D1AA
:100EE000002214480092016941F400310161016956
:100EF00001F400310091009900920C21036843F045
:100F0000010303600222006800F0010000900098D5
:100F100009480191029200210391032207210591C2
:100F2000049201A9FFF7EEFB06B010BD4038024065
:100F300000440040303802400000024062F30F22BB
:100F400062F31F42401810F0030308D0C91A1FD3E0
:100F5000DB0748BF00F8012D28BF20F8022D130041
:100F600030B414461546103928BF20E93C00FAD8A1
:100F7000490728BF20E90C0048BF40F8042D89002C
:100F800028BF20F8022D48BF00F8012D30BC704763
:100F9000C91818BF00F8012DCB0728BF00F8012D94
:100FA0007047000010B5074979441831064C7C445D
:100FB000163404E00A68081D114488470146A1421E
:100FC000F8D110BD2C000000380000004EF688510A
:100FD000CEF20001086840F470000860BFF34F8F44
:100FE000BFF36F8F4FF00170E1EE100A7047000001
:100FF000D7F6FFFF240200001A00000000000020C6
:101000000248016841F470010160704788ED00E01A
:1010100000000000000000000102030406070809A8
:1010200000F00DF8002801D0FFF7BCFFAFF30080FF
:101030000020AFF30080FFF763FC00F002F801200E
:10104000704700F001B800000746384600F002F88B
:10105000FBE7000080B5AFF30080024A11001820C2
:10106000ABBEFBE7260002000548014603B4684614
:1010700080F30988AFF30080FFF7A8FFFFF7D0FFE8
:10108000A5EDF5FEFEE7FEE7FEE7FEE7FEE77047AB
:101090007047704700F000B80248416802788A182B
:1010A0004260704700000020014880470148004727
:1010B000011000086910000800000000010203048C
:1010C000FFF7FEBFFFF7FEBFFFF7FEBFFFF7FEBF54
:1010D000FFF7FEBFFFF7FEBFFFF7FEBFFFF7FEBF44
:1010E000FFF7FEBFFFF7FEBFFFF7FEBFFFF7FEBF34
:1010F000FFF7FEBFFFF7FEBFFFF7FEBFFFF7FEBF24
:10110000FFF7FEBFFFF7FEBFFFF7FEBFFFF7FEBF13
:10111000FFF7FEBFFFF7FEBFFFF7FEBFFFF7FEBF03
:10112000FFF7FEBFFFF7FEBFFFF7FEBFFFF7FEBFF3
:10113000FFF7FEBFFFF7FEBFFFF7FEBFFFF7FEBFE3
:10114000FFF7FEBFFFF7FEBFFFF7FEBFFFF7FEBFD3
:10115000FFF7FEBFFFF7FEBFFFF7FEBFFFF7FEBFC3
:10116000FFF7FEBFFFF7FEBFFFF7FEBFFFF7FEBFB3
:10117000FFF7FEBFFFF7FEBFFFF7FEBFFFF7FEBFA3
:10118000FFF7FEBFFFF7FEBFFFF7FEBFFFF7FEBF93
:10119000FFF7FEBFFFF7FEBFFFF7FEBFFFF7FEBF83
:1011A000FFF7FEBFFFF7FEBFFFF7FEBFFFF7FEBF73
:1011B000FFF7FEBFFFF7FEBFFFF7FEBFFFF7FEBF63
:1011C000FFF7FEBFFFF7FEBFFFF7FEBFFFF7FEBF53
:1011D000FFF7FEBFFFF7FEBFFFF7FEBFFFF7FEBF43
:1011E000FFF7FEBFFFF7FEBFFFF7FEBFFFF7FEBF33
:1011F000FFF7FEBFFFF7FEBFFFF7FEBFFFF7FEBF23
:10120000FFF7FEBFFFF7FEBFFFF7FEBFFFF7FEBF12
:10121000FFF7FEBFFFF7FEBF0001F9000010FC0062
:051220000124F4BB00F5
:040000050800106976
:00000001FF
